{
  "contractName": "Assessments",
  "abi": [
    {
      "anonymous": false,
      "inputs": [
        {
          "indexed": false,
          "internalType": "uint256",
          "name": "id",
          "type": "uint256"
        },
        {
          "indexed": false,
          "internalType": "string",
          "name": "assessType",
          "type": "string"
        },
        {
          "indexed": false,
          "internalType": "string",
          "name": "date",
          "type": "string"
        },
        {
          "indexed": false,
          "internalType": "address",
          "name": "account",
          "type": "address"
        },
        {
          "indexed": false,
          "internalType": "string",
          "name": "document",
          "type": "string"
        },
        {
          "indexed": false,
          "internalType": "string",
          "name": "month",
          "type": "string"
        },
        {
          "indexed": false,
          "internalType": "string",
          "name": "year",
          "type": "string"
        }
      ],
      "name": "EnviroAdded",
      "type": "event"
    },
    {
      "anonymous": false,
      "inputs": [
        {
          "indexed": false,
          "internalType": "uint256",
          "name": "id",
          "type": "uint256"
        },
        {
          "indexed": false,
          "internalType": "string",
          "name": "assessType",
          "type": "string"
        },
        {
          "indexed": false,
          "internalType": "string",
          "name": "date",
          "type": "string"
        },
        {
          "indexed": false,
          "internalType": "address",
          "name": "account",
          "type": "address"
        },
        {
          "indexed": false,
          "internalType": "string",
          "name": "document",
          "type": "string"
        },
        {
          "indexed": false,
          "internalType": "string",
          "name": "month",
          "type": "string"
        },
        {
          "indexed": false,
          "internalType": "string",
          "name": "year",
          "type": "string"
        },
        {
          "indexed": false,
          "internalType": "string",
          "name": "process",
          "type": "string"
        }
      ],
      "name": "LCIAdded",
      "type": "event"
    },
    {
      "anonymous": false,
      "inputs": [
        {
          "indexed": false,
          "internalType": "uint256",
          "name": "id",
          "type": "uint256"
        },
        {
          "indexed": false,
          "internalType": "string",
          "name": "assessType",
          "type": "string"
        },
        {
          "indexed": false,
          "internalType": "string",
          "name": "date",
          "type": "string"
        },
        {
          "indexed": false,
          "internalType": "address",
          "name": "account",
          "type": "address"
        },
        {
          "indexed": false,
          "internalType": "string",
          "name": "document",
          "type": "string"
        },
        {
          "indexed": false,
          "internalType": "string",
          "name": "month",
          "type": "string"
        },
        {
          "indexed": false,
          "internalType": "string",
          "name": "year",
          "type": "string"
        }
      ],
      "name": "SocialAdded",
      "type": "event"
    },
    {
      "constant": true,
      "inputs": [],
      "name": "LCICount",
      "outputs": [
        {
          "internalType": "uint256",
          "name": "",
          "type": "uint256"
        }
      ],
      "payable": false,
      "stateMutability": "view",
      "type": "function"
    },
    {
      "constant": true,
      "inputs": [
        {
          "internalType": "uint256",
          "name": "",
          "type": "uint256"
        }
      ],
      "name": "LCIs",
      "outputs": [
        {
          "internalType": "uint256",
          "name": "id",
          "type": "uint256"
        },
        {
          "internalType": "string",
          "name": "assessType",
          "type": "string"
        },
        {
          "internalType": "string",
          "name": "date",
          "type": "string"
        },
        {
          "internalType": "address",
          "name": "account",
          "type": "address"
        },
        {
          "internalType": "string",
          "name": "document",
          "type": "string"
        },
        {
          "internalType": "string",
          "name": "month",
          "type": "string"
        },
        {
          "internalType": "string",
          "name": "year",
          "type": "string"
        },
        {
          "internalType": "string",
          "name": "process",
          "type": "string"
        }
      ],
      "payable": false,
      "stateMutability": "view",
      "type": "function"
    },
    {
      "constant": true,
      "inputs": [],
      "name": "assessmentCount",
      "outputs": [
        {
          "internalType": "uint256",
          "name": "",
          "type": "uint256"
        }
      ],
      "payable": false,
      "stateMutability": "view",
      "type": "function"
    },
    {
      "constant": true,
      "inputs": [],
      "name": "enviroCount",
      "outputs": [
        {
          "internalType": "uint256",
          "name": "",
          "type": "uint256"
        }
      ],
      "payable": false,
      "stateMutability": "view",
      "type": "function"
    },
    {
      "constant": true,
      "inputs": [
        {
          "internalType": "uint256",
          "name": "",
          "type": "uint256"
        }
      ],
      "name": "enviros",
      "outputs": [
        {
          "internalType": "uint256",
          "name": "id",
          "type": "uint256"
        },
        {
          "internalType": "string",
          "name": "assessType",
          "type": "string"
        },
        {
          "internalType": "string",
          "name": "date",
          "type": "string"
        },
        {
          "internalType": "address",
          "name": "account",
          "type": "address"
        },
        {
          "internalType": "string",
          "name": "document",
          "type": "string"
        },
        {
          "internalType": "string",
          "name": "month",
          "type": "string"
        },
        {
          "internalType": "string",
          "name": "year",
          "type": "string"
        }
      ],
      "payable": false,
      "stateMutability": "view",
      "type": "function"
    },
    {
      "constant": true,
      "inputs": [],
      "name": "socialCount",
      "outputs": [
        {
          "internalType": "uint256",
          "name": "",
          "type": "uint256"
        }
      ],
      "payable": false,
      "stateMutability": "view",
      "type": "function"
    },
    {
      "constant": true,
      "inputs": [
        {
          "internalType": "uint256",
          "name": "",
          "type": "uint256"
        }
      ],
      "name": "socials",
      "outputs": [
        {
          "internalType": "uint256",
          "name": "id",
          "type": "uint256"
        },
        {
          "internalType": "string",
          "name": "assessType",
          "type": "string"
        },
        {
          "internalType": "string",
          "name": "date",
          "type": "string"
        },
        {
          "internalType": "address",
          "name": "account",
          "type": "address"
        },
        {
          "internalType": "string",
          "name": "document",
          "type": "string"
        },
        {
          "internalType": "string",
          "name": "month",
          "type": "string"
        },
        {
          "internalType": "string",
          "name": "year",
          "type": "string"
        }
      ],
      "payable": false,
      "stateMutability": "view",
      "type": "function"
    },
    {
      "constant": false,
      "inputs": [
        {
          "internalType": "string",
          "name": "_date",
          "type": "string"
        },
        {
          "internalType": "string",
          "name": "_document",
          "type": "string"
        },
        {
          "internalType": "string",
          "name": "_month",
          "type": "string"
        },
        {
          "internalType": "string",
          "name": "_year",
          "type": "string"
        },
        {
          "internalType": "string",
          "name": "_process",
          "type": "string"
        }
      ],
      "name": "addLCI",
      "outputs": [],
      "payable": false,
      "stateMutability": "nonpayable",
      "type": "function"
    },
    {
      "constant": false,
      "inputs": [
        {
          "internalType": "string",
          "name": "_date",
          "type": "string"
        },
        {
          "internalType": "string",
          "name": "_document",
          "type": "string"
        },
        {
          "internalType": "string",
          "name": "_month",
          "type": "string"
        },
        {
          "internalType": "string",
          "name": "_year",
          "type": "string"
        }
      ],
      "name": "addEnviro",
      "outputs": [],
      "payable": false,
      "stateMutability": "nonpayable",
      "type": "function"
    },
    {
      "constant": false,
      "inputs": [
        {
          "internalType": "string",
          "name": "_date",
          "type": "string"
        },
        {
          "internalType": "string",
          "name": "_document",
          "type": "string"
        },
        {
          "internalType": "string",
          "name": "_month",
          "type": "string"
        },
        {
          "internalType": "string",
          "name": "_year",
          "type": "string"
        }
      ],
      "name": "addSocial",
      "outputs": [],
      "payable": false,
      "stateMutability": "nonpayable",
      "type": "function"
    }
  ],
  "bytecode": "0x60806040526000805560006001556000600255600060035534801561002357600080fd5b50612a1e806100336000396000f3fe608060405234801561001057600080fd5b506004361061009e5760003560e01c80639d91132c116100665780639d91132c14610694578063c91e101314610991578063ccd6db5114610c22578063d1dc7e0014610ea2578063db09ef88146111335761009e565b80634768475a146100a35780636439b23014610323578063817215e1146103415780639628ebc31461035f57806398ad394d14610676575b600080fd5b610321600480360360808110156100b957600080fd5b81019080803590602001906401000000008111156100d657600080fd5b8201836020820111156100e857600080fd5b8035906020019184600183028401116401000000008311171561010a57600080fd5b91908080601f016020809104026020016040519081016040528093929190818152602001838380828437600081840152601f19601f8201169050808301925050505050505091929192908035906020019064010000000081111561016d57600080fd5b82018360208201111561017f57600080fd5b803590602001918460018302840111640100000000831117156101a157600080fd5b91908080601f016020809104026020016040519081016040528093929190818152602001838380828437600081840152601f19601f8201169050808301925050505050505091929192908035906020019064010000000081111561020457600080fd5b82018360208201111561021657600080fd5b8035906020019184600183028401116401000000008311171561023857600080fd5b91908080601f016020809104026020016040519081016040528093929190818152602001838380828437600081840152601f19601f8201169050808301925050505050505091929192908035906020019064010000000081111561029b57600080fd5b8201836020820111156102ad57600080fd5b803590602001918460018302840111640100000000831117156102cf57600080fd5b91908080601f016020809104026020016040519081016040528093929190818152602001838380828437600081840152601f19601f820116905080830192505050505050509192919290505050611151565b005b61032b61158b565b6040518082815260200191505060405180910390f35b610349611591565b6040518082815260200191505060405180910390f35b610674600480360360a081101561037557600080fd5b810190808035906020019064010000000081111561039257600080fd5b8201836020820111156103a457600080fd5b803590602001918460018302840111640100000000831117156103c657600080fd5b91908080601f016020809104026020016040519081016040528093929190818152602001838380828437600081840152601f19601f8201169050808301925050505050505091929192908035906020019064010000000081111561042957600080fd5b82018360208201111561043b57600080fd5b8035906020019184600183028401116401000000008311171561045d57600080fd5b91908080601f016020809104026020016040519081016040528093929190818152602001838380828437600081840152601f19601f820116905080830192505050505050509192919290803590602001906401000000008111156104c057600080fd5b8201836020820111156104d257600080fd5b803590602001918460018302840111640100000000831117156104f457600080fd5b91908080601f016020809104026020016040519081016040528093929190818152602001838380828437600081840152601f19601f8201169050808301925050505050505091929192908035906020019064010000000081111561055757600080fd5b82018360208201111561056957600080fd5b8035906020019184600183028401116401000000008311171561058b57600080fd5b91908080601f016020809104026020016040519081016040528093929190818152602001838380828437600081840152601f19601f820116905080830192505050505050509192919290803590602001906401000000008111156105ee57600080fd5b82018360208201111561060057600080fd5b8035906020019184600183028401116401000000008311171561062257600080fd5b91908080601f016020809104026020016040519081016040528093929190818152602001838380828437600081840152601f19601f820116905080830192505050505050509192919290505050611597565b005b61067e611a52565b6040518082815260200191505060405180910390f35b6106c0600480360360208110156106aa57600080fd5b8101908080359060200190929190505050611a58565b6040518089815260200180602001806020018873ffffffffffffffffffffffffffffffffffffffff1673ffffffffffffffffffffffffffffffffffffffff1681526020018060200180602001806020018060200187810387528e818151815260200191508051906020019080838360005b8381101561074c578082015181840152602081019050610731565b50505050905090810190601f1680156107795780820380516001836020036101000a031916815260200191505b5087810386528d818151815260200191508051906020019080838360005b838110156107b2578082015181840152602081019050610797565b50505050905090810190601f1680156107df5780820380516001836020036101000a031916815260200191505b5087810385528b818151815260200191508051906020019080838360005b838110156108185780820151818401526020810190506107fd565b50505050905090810190601f1680156108455780820380516001836020036101000a031916815260200191505b5087810384528a818151815260200191508051906020019080838360005b8381101561087e578082015181840152602081019050610863565b50505050905090810190601f1680156108ab5780820380516001836020036101000a031916815260200191505b50878103835289818151815260200191508051906020019080838360005b838110156108e45780820151818401526020810190506108c9565b50505050905090810190601f1680156109115780820380516001836020036101000a031916815260200191505b50878103825288818151815260200191508051906020019080838360005b8381101561094a57808201518184015260208101905061092f565b50505050905090810190601f1680156109775780820380516001836020036101000a031916815260200191505b509e50505050505050505050505050505060405180910390f35b6109bd600480360360208110156109a757600080fd5b8101908080359060200190929190505050611e50565b6040518088815260200180602001806020018773ffffffffffffffffffffffffffffffffffffffff1673ffffffffffffffffffffffffffffffffffffffff16815260200180602001806020018060200186810386528c818151815260200191508051906020019080838360005b83811015610a45578082015181840152602081019050610a2a565b50505050905090810190601f168015610a725780820380516001836020036101000a031916815260200191505b5086810385528b818151815260200191508051906020019080838360005b83811015610aab578082015181840152602081019050610a90565b50505050905090810190601f168015610ad85780820380516001836020036101000a031916815260200191505b50868103845289818151815260200191508051906020019080838360005b83811015610b11578082015181840152602081019050610af6565b50505050905090810190601f168015610b3e5780820380516001836020036101000a031916815260200191505b50868103835288818151815260200191508051906020019080838360005b83811015610b77578082015181840152602081019050610b5c565b50505050905090810190601f168015610ba45780820380516001836020036101000a031916815260200191505b50868103825287818151815260200191508051906020019080838360005b83811015610bdd578082015181840152602081019050610bc2565b50505050905090810190601f168015610c0a5780820380516001836020036101000a031916815260200191505b509c5050505050505050505050505060405180910390f35b610ea060048036036080811015610c3857600080fd5b8101908080359060200190640100000000811115610c5557600080fd5b820183602082011115610c6757600080fd5b80359060200191846001830284011164010000000083111715610c8957600080fd5b91908080601f016020809104026020016040519081016040528093929190818152602001838380828437600081840152601f19601f82011690508083019250505050505050919291929080359060200190640100000000811115610cec57600080fd5b820183602082011115610cfe57600080fd5b80359060200191846001830284011164010000000083111715610d2057600080fd5b91908080601f016020809104026020016040519081016040528093929190818152602001838380828437600081840152601f19601f82011690508083019250505050505050919291929080359060200190640100000000811115610d8357600080fd5b820183602082011115610d9557600080fd5b80359060200191846001830284011164010000000083111715610db757600080fd5b91908080601f016020809104026020016040519081016040528093929190818152602001838380828437600081840152601f19601f82011690508083019250505050505050919291929080359060200190640100000000811115610e1a57600080fd5b820183602082011115610e2c57600080fd5b80359060200191846001830284011164010000000083111715610e4e57600080fd5b91908080601f016020809104026020016040519081016040528093929190818152602001838380828437600081840152601f19601f8201169050808301925050505050505091929192905050506121aa565b005b610ece60048036036020811015610eb857600080fd5b81019080803590602001909291905050506125e4565b6040518088815260200180602001806020018773ffffffffffffffffffffffffffffffffffffffff1673ffffffffffffffffffffffffffffffffffffffff16815260200180602001806020018060200186810386528c818151815260200191508051906020019080838360005b83811015610f56578082015181840152602081019050610f3b565b50505050905090810190601f168015610f835780820380516001836020036101000a031916815260200191505b5086810385528b818151815260200191508051906020019080838360005b83811015610fbc578082015181840152602081019050610fa1565b50505050905090810190601f168015610fe95780820380516001836020036101000a031916815260200191505b50868103845289818151815260200191508051906020019080838360005b83811015611022578082015181840152602081019050611007565b50505050905090810190601f16801561104f5780820380516001836020036101000a031916815260200191505b50868103835288818151815260200191508051906020019080838360005b8381101561108857808201518184015260208101905061106d565b50505050905090810190601f1680156110b55780820380516001836020036101000a031916815260200191505b50868103825287818151815260200191508051906020019080838360005b838110156110ee5780820151818401526020810190506110d3565b50505050905090810190601f16801561111b5780820380516001836020036101000a031916815260200191505b509c5050505050505050505050505060405180910390f35b61113b61293e565b6040518082815260200191505060405180910390f35b60008451141561116057600080fd5b60008351141561116f57600080fd5b60008251141561117e57600080fd5b60008151141561118d57600080fd5b6002600081548092919060010191905055506003600081548092919060010191905055506040518060e0016040528060025481526020016040518060400160405280601181526020017f536f6369616c204173736573736d656e7400000000000000000000000000000081525081526020018581526020013373ffffffffffffffffffffffffffffffffffffffff1681526020018481526020018381526020018281525060066000600254815260200190815260200160002060008201518160000155602082015181600101908051906020019061126c929190612944565b506040820151816002019080519060200190611289929190612944565b5060608201518160030160006101000a81548173ffffffffffffffffffffffffffffffffffffffff021916908373ffffffffffffffffffffffffffffffffffffffff16021790555060808201518160040190805190602001906112ed929190612944565b5060a082015181600501908051906020019061130a929190612944565b5060c0820151816006019080519060200190611327929190612944565b509050507fc4a7bea2a2f53a57d59fc6ae4f4b6f9dd5a2dda1980749c41ec3ae8046f5139060025485338686866040518087815260200180602001806020018773ffffffffffffffffffffffffffffffffffffffff1673ffffffffffffffffffffffffffffffffffffffff168152602001806020018060200180602001868103865260118152602001807f536f6369616c204173736573736d656e7400000000000000000000000000000081525060200186810385528b818151815260200191508051906020019080838360005b838110156114105780820151818401526020810190506113f5565b50505050905090810190601f16801561143d5780820380516001836020036101000a031916815260200191505b50868103845289818151815260200191508051906020019080838360005b8381101561147657808201518184015260208101905061145b565b50505050905090810190601f1680156114a35780820380516001836020036101000a031916815260200191505b50868103835288818151815260200191508051906020019080838360005b838110156114dc5780820151818401526020810190506114c1565b50505050905090810190601f1680156115095780820380516001836020036101000a031916815260200191505b50868103825287818151815260200191508051906020019080838360005b83811015611542578082015181840152602081019050611527565b50505050905090810190601f16801561156f5780820380516001836020036101000a031916815260200191505b509b50505050505050505050505060405180910390a150505050565b60005481565b60035481565b6000855114156115a657600080fd5b6000845114156115b557600080fd5b6000815114156115c457600080fd5b600080815480929190600101919050555060036000815480929190600101919050555060405180610100016040528060005481526020016040518060400160405280601481526020017f4c696665204379636c6520496e76656e746f727900000000000000000000000081525081526020018681526020013373ffffffffffffffffffffffffffffffffffffffff1681526020018581526020018481526020018381526020018281525060046000805481526020019081526020016000206000820151816000015560208201518160010190805190602001906116a8929190612944565b5060408201518160020190805190602001906116c5929190612944565b5060608201518160030160006101000a81548173ffffffffffffffffffffffffffffffffffffffff021916908373ffffffffffffffffffffffffffffffffffffffff1602179055506080820151816004019080519060200190611729929190612944565b5060a0820151816005019080519060200190611746929190612944565b5060c0820151816006019080519060200190611763929190612944565b5060e0820151816007019080519060200190611780929190612944565b509050507f3fb89c8f7e7eabd126ebdcb52ddc192c4e2e3ef8438ee81f9c736986b70a03006000548633878787876040518088815260200180602001806020018873ffffffffffffffffffffffffffffffffffffffff1673ffffffffffffffffffffffffffffffffffffffff16815260200180602001806020018060200180602001878103875260148152602001807f4c696665204379636c6520496e76656e746f727900000000000000000000000081525060200187810386528d818151815260200191508051906020019080838360005b8381101561186e578082015181840152602081019050611853565b50505050905090810190601f16801561189b5780820380516001836020036101000a031916815260200191505b5087810385528b818151815260200191508051906020019080838360005b838110156118d45780820151818401526020810190506118b9565b50505050905090810190601f1680156119015780820380516001836020036101000a031916815260200191505b5087810384528a818151815260200191508051906020019080838360005b8381101561193a57808201518184015260208101905061191f565b50505050905090810190601f1680156119675780820380516001836020036101000a031916815260200191505b50878103835289818151815260200191508051906020019080838360005b838110156119a0578082015181840152602081019050611985565b50505050905090810190601f1680156119cd5780820380516001836020036101000a031916815260200191505b50878103825288818151815260200191508051906020019080838360005b83811015611a065780820151818401526020810190506119eb565b50505050905090810190601f168015611a335780820380516001836020036101000a031916815260200191505b509d505050505050505050505050505060405180910390a15050505050565b60025481565b6004602052806000526040600020600091509050806000015490806001018054600181600116156101000203166002900480601f016020809104026020016040519081016040528092919081815260200182805460018160011615610100020316600290048015611b0a5780601f10611adf57610100808354040283529160200191611b0a565b820191906000526020600020905b815481529060010190602001808311611aed57829003601f168201915b505050505090806002018054600181600116156101000203166002900480601f016020809104026020016040519081016040528092919081815260200182805460018160011615610100020316600290048015611ba85780601f10611b7d57610100808354040283529160200191611ba8565b820191906000526020600020905b815481529060010190602001808311611b8b57829003601f168201915b5050505050908060030160009054906101000a900473ffffffffffffffffffffffffffffffffffffffff1690806004018054600181600116156101000203166002900480601f016020809104026020016040519081016040528092919081815260200182805460018160011615610100020316600290048015611c6c5780601f10611c4157610100808354040283529160200191611c6c565b820191906000526020600020905b815481529060010190602001808311611c4f57829003601f168201915b505050505090806005018054600181600116156101000203166002900480601f016020809104026020016040519081016040528092919081815260200182805460018160011615610100020316600290048015611d0a5780601f10611cdf57610100808354040283529160200191611d0a565b820191906000526020600020905b815481529060010190602001808311611ced57829003601f168201915b505050505090806006018054600181600116156101000203166002900480601f016020809104026020016040519081016040528092919081815260200182805460018160011615610100020316600290048015611da85780601f10611d7d57610100808354040283529160200191611da8565b820191906000526020600020905b815481529060010190602001808311611d8b57829003601f168201915b505050505090806007018054600181600116156101000203166002900480601f016020809104026020016040519081016040528092919081815260200182805460018160011615610100020316600290048015611e465780601f10611e1b57610100808354040283529160200191611e46565b820191906000526020600020905b815481529060010190602001808311611e2957829003601f168201915b5050505050905088565b6006602052806000526040600020600091509050806000015490806001018054600181600116156101000203166002900480601f016020809104026020016040519081016040528092919081815260200182805460018160011615610100020316600290048015611f025780601f10611ed757610100808354040283529160200191611f02565b820191906000526020600020905b815481529060010190602001808311611ee557829003601f168201915b505050505090806002018054600181600116156101000203166002900480601f016020809104026020016040519081016040528092919081815260200182805460018160011615610100020316600290048015611fa05780601f10611f7557610100808354040283529160200191611fa0565b820191906000526020600020905b815481529060010190602001808311611f8357829003601f168201915b5050505050908060030160009054906101000a900473ffffffffffffffffffffffffffffffffffffffff1690806004018054600181600116156101000203166002900480601f0160208091040260200160405190810160405280929190818152602001828054600181600116156101000203166002900480156120645780601f1061203957610100808354040283529160200191612064565b820191906000526020600020905b81548152906001019060200180831161204757829003601f168201915b505050505090806005018054600181600116156101000203166002900480601f0160208091040260200160405190810160405280929190818152602001828054600181600116156101000203166002900480156121025780601f106120d757610100808354040283529160200191612102565b820191906000526020600020905b8154815290600101906020018083116120e557829003601f168201915b505050505090806006018054600181600116156101000203166002900480601f0160208091040260200160405190810160405280929190818152602001828054600181600116156101000203166002900480156121a05780601f10612175576101008083540402835291602001916121a0565b820191906000526020600020905b81548152906001019060200180831161218357829003601f168201915b5050505050905087565b6000845114156121b957600080fd5b6000835114156121c857600080fd5b6000825114156121d757600080fd5b6000815114156121e657600080fd5b6001600081548092919060010191905055506003600081548092919060010191905055506040518060e0016040528060015481526020016040518060400160405280601881526020017f456e7669726f6e6d656e74616c204173736573736d656e74000000000000000081525081526020018581526020013373ffffffffffffffffffffffffffffffffffffffff168152602001848152602001838152602001828152506005600060015481526020019081526020016000206000820151816000015560208201518160010190805190602001906122c5929190612944565b5060408201518160020190805190602001906122e2929190612944565b5060608201518160030160006101000a81548173ffffffffffffffffffffffffffffffffffffffff021916908373ffffffffffffffffffffffffffffffffffffffff1602179055506080820151816004019080519060200190612346929190612944565b5060a0820151816005019080519060200190612363929190612944565b5060c0820151816006019080519060200190612380929190612944565b509050507f3ab634ec38018f6b798f4f90578d1f616d135e8922fe559c7b2a08af46d5553f60015485338686866040518087815260200180602001806020018773ffffffffffffffffffffffffffffffffffffffff1673ffffffffffffffffffffffffffffffffffffffff168152602001806020018060200180602001868103865260188152602001807f456e7669726f6e6d656e74616c204173736573736d656e74000000000000000081525060200186810385528b818151815260200191508051906020019080838360005b8381101561246957808201518184015260208101905061244e565b50505050905090810190601f1680156124965780820380516001836020036101000a031916815260200191505b50868103845289818151815260200191508051906020019080838360005b838110156124cf5780820151818401526020810190506124b4565b50505050905090810190601f1680156124fc5780820380516001836020036101000a031916815260200191505b50868103835288818151815260200191508051906020019080838360005b8381101561253557808201518184015260208101905061251a565b50505050905090810190601f1680156125625780820380516001836020036101000a031916815260200191505b50868103825287818151815260200191508051906020019080838360005b8381101561259b578082015181840152602081019050612580565b50505050905090810190601f1680156125c85780820380516001836020036101000a031916815260200191505b509b50505050505050505050505060405180910390a150505050565b6005602052806000526040600020600091509050806000015490806001018054600181600116156101000203166002900480601f0160208091040260200160405190810160405280929190818152602001828054600181600116156101000203166002900480156126965780601f1061266b57610100808354040283529160200191612696565b820191906000526020600020905b81548152906001019060200180831161267957829003601f168201915b505050505090806002018054600181600116156101000203166002900480601f0160208091040260200160405190810160405280929190818152602001828054600181600116156101000203166002900480156127345780601f1061270957610100808354040283529160200191612734565b820191906000526020600020905b81548152906001019060200180831161271757829003601f168201915b5050505050908060030160009054906101000a900473ffffffffffffffffffffffffffffffffffffffff1690806004018054600181600116156101000203166002900480601f0160208091040260200160405190810160405280929190818152602001828054600181600116156101000203166002900480156127f85780601f106127cd576101008083540402835291602001916127f8565b820191906000526020600020905b8154815290600101906020018083116127db57829003601f168201915b505050505090806005018054600181600116156101000203166002900480601f0160208091040260200160405190810160405280929190818152602001828054600181600116156101000203166002900480156128965780601f1061286b57610100808354040283529160200191612896565b820191906000526020600020905b81548152906001019060200180831161287957829003601f168201915b505050505090806006018054600181600116156101000203166002900480601f0160208091040260200160405190810160405280929190818152602001828054600181600116156101000203166002900480156129345780601f1061290957610100808354040283529160200191612934565b820191906000526020600020905b81548152906001019060200180831161291757829003601f168201915b5050505050905087565b60015481565b828054600181600116156101000203166002900490600052602060002090601f016020900481019282601f1061298557805160ff19168380011785556129b3565b828001600101855582156129b3579182015b828111156129b2578251825591602001919060010190612997565b5b5090506129c091906129c4565b5090565b6129e691905b808211156129e25760008160009055506001016129ca565b5090565b9056fea265627a7a72315820bdf06475d76d0b9b0bc35a8ea924aec9ebea14d6987180e0a35f770cae60706564736f6c63430005100032",
  "source": "pragma solidity >=0.4.22 <0.9.0;\n\ncontract Assessments {\n    \n    uint public LCICount = 0; \n    uint public enviroCount = 0; \n    uint public socialCount = 0; \n    uint public assessmentCount = 0; \n\n    mapping (uint => LCI) public LCIs;\n    mapping (uint => Enviro) public enviros;\n    mapping (uint => Social) public socials;\n\n    struct LCI {\n        uint id;\n        string assessType;\n        string date;\n        address account;\n        string document;\n        string month;\n        string year;\n        string process;\n    }\n\n    event LCIAdded(\n        uint id,\n        string assessType,\n        string date,\n        address account,\n        string document,\n        string month,\n        string year,\n        string process\n    );\n\n    struct Enviro {\n        uint id;\n        string assessType;\n        string date;\n        address account;\n        string document;\n        string month;\n        string year;\n    }\n\n    event EnviroAdded(\n        uint id,\n        string assessType,\n        string date,\n        address account,\n        string document,\n        string month,\n        string year\n    );\n\n    struct Social {\n        uint id;\n        string assessType;\n        string date;\n        address account;\n        string document;\n        string month;\n        string year;\n    }\n\n    event SocialAdded(\n        uint id,\n        string assessType,\n        string date,\n        address account,\n        string document,\n        string month,\n        string year\n    );\n\n    function addLCI(\n        string memory _date, \n        string memory _document,\n        string memory _month,\n        string memory _year,\n        string memory _process\n    ) public {\n        require(bytes(_date).length != 0);\n        require(bytes(_document).length != 0);\n        require(bytes(_process).length != 0);\n        LCICount++;\n        assessmentCount++;\n        LCIs[LCICount] = LCI(\n            LCICount,\n            \"Life Cycle Inventory\",\n            _date,\n            msg.sender,\n            _document,\n            _month,\n            _year,\n            _process);\n        emit LCIAdded(\n            LCICount,\n            \"Life Cycle Inventory\",\n            _date,\n            msg.sender,\n            _document,\n            _month,\n            _year,\n            _process);\n    }\n    function addEnviro(\n        string memory _date, \n        string memory _document,\n        string memory _month,\n        string memory _year\n    ) public {\n        require(bytes(_date).length != 0);\n        require(bytes(_document).length != 0);\n        require(bytes(_month).length != 0);\n        require(bytes(_year).length != 0);\n        enviroCount++;\n        assessmentCount++;\n        enviros[enviroCount] = Enviro(\n            enviroCount,\n            \"Environmental Assessment\",\n            _date,\n            msg.sender,\n            _document,\n            _month,\n            _year);\n        emit EnviroAdded(\n            enviroCount,\n            \"Environmental Assessment\",\n            _date,\n            msg.sender,\n            _document,\n            _month,\n            _year);\n    }\n    function addSocial(\n        string memory _date, \n        string memory _document,\n        string memory _month,\n        string memory _year\n    ) public {\n        require(bytes(_date).length != 0);\n        require(bytes(_document).length != 0);\n        require(bytes(_month).length != 0);\n        require(bytes(_year).length != 0);\n        socialCount++;\n        assessmentCount++;\n        socials[socialCount] = Social(\n            socialCount,\n            \"Social Assessment\",\n            _date,\n            msg.sender,\n            _document,\n            _month,\n            _year);\n        emit SocialAdded(\n            socialCount,\n            \"Social Assessment\",\n            _date,\n            msg.sender,\n            _document,\n            _month,\n            _year);\n    }\n}",
  "sourcePath": "/Users/keshavgarg/Downloads/Sustainable-Supply-Chain-DApp-main/contracts/Assessments.sol",
  "compiler": {
    "name": "solc",
    "version": "0.5.16+commit.9c3226ce.Emscripten.clang"
  },
  "schemaVersion": "3.4.14",
  "updatedAt": "2023-06-09T22:13:32.708Z",
  "networkType": "ethereum",
  "devdoc": {
    "methods": {}
  },
  "userdoc": {
    "methods": {}
  }
}