{
  "contractName": "Origin",
  "abi": [
    {
      "inputs": [],
      "payable": false,
      "stateMutability": "nonpayable",
      "type": "constructor"
    },
    {
      "anonymous": false,
      "inputs": [
        {
          "indexed": false,
          "internalType": "uint256",
          "name": "id",
          "type": "uint256"
        },
        {
          "indexed": false,
          "internalType": "string",
          "name": "name",
          "type": "string"
        },
        {
          "indexed": false,
          "internalType": "string",
          "name": "quantity",
          "type": "string"
        },
        {
          "indexed": false,
          "internalType": "string",
          "name": "unit",
          "type": "string"
        },
        {
          "indexed": false,
          "internalType": "string",
          "name": "date",
          "type": "string"
        },
        {
          "indexed": false,
          "internalType": "address",
          "name": "account",
          "type": "address"
        }
      ],
      "name": "OrderAdded",
      "type": "event"
    },
    {
      "anonymous": false,
      "inputs": [
        {
          "indexed": false,
          "internalType": "uint256",
          "name": "id",
          "type": "uint256"
        },
        {
          "indexed": false,
          "internalType": "string",
          "name": "name",
          "type": "string"
        },
        {
          "indexed": false,
          "internalType": "string",
          "name": "image",
          "type": "string"
        },
        {
          "indexed": false,
          "internalType": "string",
          "name": "process",
          "type": "string"
        },
        {
          "indexed": false,
          "internalType": "string",
          "name": "date",
          "type": "string"
        },
        {
          "indexed": false,
          "internalType": "address",
          "name": "account",
          "type": "address"
        }
      ],
      "name": "ProductAdded",
      "type": "event"
    },
    {
      "anonymous": false,
      "inputs": [
        {
          "indexed": false,
          "internalType": "uint256",
          "name": "id",
          "type": "uint256"
        },
        {
          "indexed": false,
          "internalType": "string",
          "name": "shipType",
          "type": "string"
        },
        {
          "indexed": false,
          "internalType": "string",
          "name": "place",
          "type": "string"
        },
        {
          "indexed": false,
          "internalType": "string",
          "name": "latlong",
          "type": "string"
        },
        {
          "indexed": false,
          "internalType": "string",
          "name": "date",
          "type": "string"
        },
        {
          "indexed": false,
          "internalType": "address",
          "name": "account",
          "type": "address"
        },
        {
          "indexed": false,
          "internalType": "string",
          "name": "product",
          "type": "string"
        },
        {
          "indexed": false,
          "internalType": "string",
          "name": "process",
          "type": "string"
        }
      ],
      "name": "ShipmentAdded",
      "type": "event"
    },
    {
      "constant": true,
      "inputs": [],
      "name": "orderCount",
      "outputs": [
        {
          "internalType": "uint256",
          "name": "",
          "type": "uint256"
        }
      ],
      "payable": false,
      "stateMutability": "view",
      "type": "function"
    },
    {
      "constant": true,
      "inputs": [
        {
          "internalType": "uint256",
          "name": "",
          "type": "uint256"
        }
      ],
      "name": "orders",
      "outputs": [
        {
          "internalType": "uint256",
          "name": "id",
          "type": "uint256"
        },
        {
          "internalType": "string",
          "name": "name",
          "type": "string"
        },
        {
          "internalType": "string",
          "name": "quantity",
          "type": "string"
        },
        {
          "internalType": "string",
          "name": "unit",
          "type": "string"
        },
        {
          "internalType": "string",
          "name": "date",
          "type": "string"
        },
        {
          "internalType": "address",
          "name": "account",
          "type": "address"
        }
      ],
      "payable": false,
      "stateMutability": "view",
      "type": "function"
    },
    {
      "constant": true,
      "inputs": [],
      "name": "productCount",
      "outputs": [
        {
          "internalType": "uint256",
          "name": "",
          "type": "uint256"
        }
      ],
      "payable": false,
      "stateMutability": "view",
      "type": "function"
    },
    {
      "constant": true,
      "inputs": [
        {
          "internalType": "uint256",
          "name": "",
          "type": "uint256"
        }
      ],
      "name": "products",
      "outputs": [
        {
          "internalType": "uint256",
          "name": "id",
          "type": "uint256"
        },
        {
          "internalType": "string",
          "name": "name",
          "type": "string"
        },
        {
          "internalType": "string",
          "name": "image",
          "type": "string"
        },
        {
          "internalType": "string",
          "name": "process",
          "type": "string"
        },
        {
          "internalType": "string",
          "name": "date",
          "type": "string"
        },
        {
          "internalType": "address",
          "name": "account",
          "type": "address"
        }
      ],
      "payable": false,
      "stateMutability": "view",
      "type": "function"
    },
    {
      "constant": true,
      "inputs": [],
      "name": "shipmentCount",
      "outputs": [
        {
          "internalType": "uint256",
          "name": "",
          "type": "uint256"
        }
      ],
      "payable": false,
      "stateMutability": "view",
      "type": "function"
    },
    {
      "constant": true,
      "inputs": [
        {
          "internalType": "uint256",
          "name": "",
          "type": "uint256"
        }
      ],
      "name": "shipments",
      "outputs": [
        {
          "internalType": "uint256",
          "name": "id",
          "type": "uint256"
        },
        {
          "internalType": "string",
          "name": "shipType",
          "type": "string"
        },
        {
          "internalType": "string",
          "name": "place",
          "type": "string"
        },
        {
          "internalType": "string",
          "name": "latlong",
          "type": "string"
        },
        {
          "internalType": "string",
          "name": "date",
          "type": "string"
        },
        {
          "internalType": "address",
          "name": "account",
          "type": "address"
        },
        {
          "internalType": "string",
          "name": "product",
          "type": "string"
        },
        {
          "internalType": "string",
          "name": "process",
          "type": "string"
        }
      ],
      "payable": false,
      "stateMutability": "view",
      "type": "function"
    },
    {
      "constant": false,
      "inputs": [
        {
          "internalType": "string",
          "name": "_name",
          "type": "string"
        },
        {
          "internalType": "string",
          "name": "_image",
          "type": "string"
        },
        {
          "internalType": "string",
          "name": "_process",
          "type": "string"
        },
        {
          "internalType": "string",
          "name": "_date",
          "type": "string"
        }
      ],
      "name": "addProduct",
      "outputs": [],
      "payable": false,
      "stateMutability": "nonpayable",
      "type": "function"
    },
    {
      "constant": false,
      "inputs": [
        {
          "internalType": "string",
          "name": "_name",
          "type": "string"
        },
        {
          "internalType": "string",
          "name": "_quantity",
          "type": "string"
        },
        {
          "internalType": "string",
          "name": "_unit",
          "type": "string"
        },
        {
          "internalType": "string",
          "name": "_date",
          "type": "string"
        }
      ],
      "name": "addOrder",
      "outputs": [],
      "payable": false,
      "stateMutability": "nonpayable",
      "type": "function"
    },
    {
      "constant": false,
      "inputs": [
        {
          "internalType": "string",
          "name": "_shipType",
          "type": "string"
        },
        {
          "internalType": "string",
          "name": "_place",
          "type": "string"
        },
        {
          "internalType": "string",
          "name": "_latlong",
          "type": "string"
        },
        {
          "internalType": "string",
          "name": "_date",
          "type": "string"
        },
        {
          "internalType": "string",
          "name": "_product",
          "type": "string"
        },
        {
          "internalType": "string",
          "name": "_process",
          "type": "string"
        }
      ],
      "name": "addShipment",
      "outputs": [],
      "payable": false,
      "stateMutability": "nonpayable",
      "type": "function"
    }
  ],
  "bytecode": "0x60806040526000805560006001556000600255738f01f0376abeb45409d48ddaa81d1d02724e72fe600360006101000a81548173ffffffffffffffffffffffffffffffffffffffff021916908373ffffffffffffffffffffffffffffffffffffffff16021790555034801561007357600080fd5b506127ec806100836000396000f3fe608060405234801561001057600080fd5b50600436106100935760003560e01c8063a85c38ef11610066578063a85c38ef14610986578063aace20b714610bab578063b90c278114610bc9578063e0f6ef8714610e49578063fde74e8114610e6757610093565b80632453ffa8146100985780632ac08a93146100b657806334218473146103b35780637acc0b2014610761575b600080fd5b6100a06110e7565b6040518082815260200191505060405180910390f35b6100e2600480360360208110156100cc57600080fd5b81019080803590602001909291905050506110ed565b60405180898152602001806020018060200180602001806020018873ffffffffffffffffffffffffffffffffffffffff1673ffffffffffffffffffffffffffffffffffffffff168152602001806020018060200187810387528e818151815260200191508051906020019080838360005b8381101561016e578082015181840152602081019050610153565b50505050905090810190601f16801561019b5780820380516001836020036101000a031916815260200191505b5087810386528d818151815260200191508051906020019080838360005b838110156101d45780820151818401526020810190506101b9565b50505050905090810190601f1680156102015780820380516001836020036101000a031916815260200191505b5087810385528c818151815260200191508051906020019080838360005b8381101561023a57808201518184015260208101905061021f565b50505050905090810190601f1680156102675780820380516001836020036101000a031916815260200191505b5087810384528b818151815260200191508051906020019080838360005b838110156102a0578082015181840152602081019050610285565b50505050905090810190601f1680156102cd5780820380516001836020036101000a031916815260200191505b50878103835289818151815260200191508051906020019080838360005b838110156103065780820151818401526020810190506102eb565b50505050905090810190601f1680156103335780820380516001836020036101000a031916815260200191505b50878103825288818151815260200191508051906020019080838360005b8381101561036c578082015181840152602081019050610351565b50505050905090810190601f1680156103995780820380516001836020036101000a031916815260200191505b509e50505050505050505050505050505060405180910390f35b61075f600480360360c08110156103c957600080fd5b81019080803590602001906401000000008111156103e657600080fd5b8201836020820111156103f857600080fd5b8035906020019184600183028401116401000000008311171561041a57600080fd5b91908080601f016020809104026020016040519081016040528093929190818152602001838380828437600081840152601f19601f8201169050808301925050505050505091929192908035906020019064010000000081111561047d57600080fd5b82018360208201111561048f57600080fd5b803590602001918460018302840111640100000000831117156104b157600080fd5b91908080601f016020809104026020016040519081016040528093929190818152602001838380828437600081840152601f19601f8201169050808301925050505050505091929192908035906020019064010000000081111561051457600080fd5b82018360208201111561052657600080fd5b8035906020019184600183028401116401000000008311171561054857600080fd5b91908080601f016020809104026020016040519081016040528093929190818152602001838380828437600081840152601f19601f820116905080830192505050505050509192919290803590602001906401000000008111156105ab57600080fd5b8201836020820111156105bd57600080fd5b803590602001918460018302840111640100000000831117156105df57600080fd5b91908080601f016020809104026020016040519081016040528093929190818152602001838380828437600081840152601f19601f8201169050808301925050505050505091929192908035906020019064010000000081111561064257600080fd5b82018360208201111561065457600080fd5b8035906020019184600183028401116401000000008311171561067657600080fd5b91908080601f016020809104026020016040519081016040528093929190818152602001838380828437600081840152601f19601f820116905080830192505050505050509192919290803590602001906401000000008111156106d957600080fd5b8201836020820111156106eb57600080fd5b8035906020019184600183028401116401000000008311171561070d57600080fd5b91908080601f016020809104026020016040519081016040528093929190818152602001838380828437600081840152601f19601f8201169050808301925050505050505091929192905050506114e5565b005b61078d6004803603602081101561077757600080fd5b81019080803590602001909291905050506119ae565b60405180878152602001806020018060200180602001806020018673ffffffffffffffffffffffffffffffffffffffff1673ffffffffffffffffffffffffffffffffffffffff16815260200185810385528a818151815260200191508051906020019080838360005b838110156108115780820151818401526020810190506107f6565b50505050905090810190601f16801561083e5780820380516001836020036101000a031916815260200191505b50858103845289818151815260200191508051906020019080838360005b8381101561087757808201518184015260208101905061085c565b50505050905090810190601f1680156108a45780820380516001836020036101000a031916815260200191505b50858103835288818151815260200191508051906020019080838360005b838110156108dd5780820151818401526020810190506108c2565b50505050905090810190601f16801561090a5780820380516001836020036101000a031916815260200191505b50858103825287818151815260200191508051906020019080838360005b83811015610943578082015181840152602081019050610928565b50505050905090810190601f1680156109705780820380516001836020036101000a031916815260200191505b509a505050505050505050505060405180910390f35b6109b26004803603602081101561099c57600080fd5b8101908080359060200190929190505050611c6a565b60405180878152602001806020018060200180602001806020018673ffffffffffffffffffffffffffffffffffffffff1673ffffffffffffffffffffffffffffffffffffffff16815260200185810385528a818151815260200191508051906020019080838360005b83811015610a36578082015181840152602081019050610a1b565b50505050905090810190601f168015610a635780820380516001836020036101000a031916815260200191505b50858103845289818151815260200191508051906020019080838360005b83811015610a9c578082015181840152602081019050610a81565b50505050905090810190601f168015610ac95780820380516001836020036101000a031916815260200191505b50858103835288818151815260200191508051906020019080838360005b83811015610b02578082015181840152602081019050610ae7565b50505050905090810190601f168015610b2f5780820380516001836020036101000a031916815260200191505b50858103825287818151815260200191508051906020019080838360005b83811015610b68578082015181840152602081019050610b4d565b50505050905090810190601f168015610b955780820380516001836020036101000a031916815260200191505b509a505050505050505050505060405180910390f35b610bb3611f26565b6040518082815260200191505060405180910390f35b610e4760048036036080811015610bdf57600080fd5b8101908080359060200190640100000000811115610bfc57600080fd5b820183602082011115610c0e57600080fd5b80359060200191846001830284011164010000000083111715610c3057600080fd5b91908080601f016020809104026020016040519081016040528093929190818152602001838380828437600081840152601f19601f82011690508083019250505050505050919291929080359060200190640100000000811115610c9357600080fd5b820183602082011115610ca557600080fd5b80359060200191846001830284011164010000000083111715610cc757600080fd5b91908080601f016020809104026020016040519081016040528093929190818152602001838380828437600081840152601f19601f82011690508083019250505050505050919291929080359060200190640100000000811115610d2a57600080fd5b820183602082011115610d3c57600080fd5b80359060200191846001830284011164010000000083111715610d5e57600080fd5b91908080601f016020809104026020016040519081016040528093929190818152602001838380828437600081840152601f19601f82011690508083019250505050505050919291929080359060200190640100000000811115610dc157600080fd5b820183602082011115610dd357600080fd5b80359060200191846001830284011164010000000083111715610df557600080fd5b91908080601f016020809104026020016040519081016040528093929190818152602001838380828437600081840152601f19601f820116905080830192505050505050509192919290505050611f2c565b005b610e5161231d565b6040518082815260200191505060405180910390f35b6110e560048036036080811015610e7d57600080fd5b8101908080359060200190640100000000811115610e9a57600080fd5b820183602082011115610eac57600080fd5b80359060200191846001830284011164010000000083111715610ece57600080fd5b91908080601f016020809104026020016040519081016040528093929190818152602001838380828437600081840152601f19601f82011690508083019250505050505050919291929080359060200190640100000000811115610f3157600080fd5b820183602082011115610f4357600080fd5b80359060200191846001830284011164010000000083111715610f6557600080fd5b91908080601f016020809104026020016040519081016040528093929190818152602001838380828437600081840152601f19601f82011690508083019250505050505050919291929080359060200190640100000000811115610fc857600080fd5b820183602082011115610fda57600080fd5b80359060200191846001830284011164010000000083111715610ffc57600080fd5b91908080601f016020809104026020016040519081016040528093929190818152602001838380828437600081840152601f19601f8201169050808301925050505050505091929192908035906020019064010000000081111561105f57600080fd5b82018360208201111561107157600080fd5b8035906020019184600183028401116401000000008311171561109357600080fd5b91908080601f016020809104026020016040519081016040528093929190818152602001838380828437600081840152601f19601f820116905080830192505050505050509192919290505050612323565b005b60015481565b6006602052806000526040600020600091509050806000015490806001018054600181600116156101000203166002900480601f01602080910402602001604051908101604052809291908181526020018280546001816001161561010002031660029004801561119f5780601f106111745761010080835404028352916020019161119f565b820191906000526020600020905b81548152906001019060200180831161118257829003601f168201915b505050505090806002018054600181600116156101000203166002900480601f01602080910402602001604051908101604052809291908181526020018280546001816001161561010002031660029004801561123d5780601f106112125761010080835404028352916020019161123d565b820191906000526020600020905b81548152906001019060200180831161122057829003601f168201915b505050505090806003018054600181600116156101000203166002900480601f0160208091040260200160405190810160405280929190818152602001828054600181600116156101000203166002900480156112db5780601f106112b0576101008083540402835291602001916112db565b820191906000526020600020905b8154815290600101906020018083116112be57829003601f168201915b505050505090806004018054600181600116156101000203166002900480601f0160208091040260200160405190810160405280929190818152602001828054600181600116156101000203166002900480156113795780601f1061134e57610100808354040283529160200191611379565b820191906000526020600020905b81548152906001019060200180831161135c57829003601f168201915b5050505050908060050160009054906101000a900473ffffffffffffffffffffffffffffffffffffffff1690806006018054600181600116156101000203166002900480601f01602080910402602001604051908101604052809291908181526020018280546001816001161561010002031660029004801561143d5780601f106114125761010080835404028352916020019161143d565b820191906000526020600020905b81548152906001019060200180831161142057829003601f168201915b505050505090806007018054600181600116156101000203166002900480601f0160208091040260200160405190810160405280929190818152602001828054600181600116156101000203166002900480156114db5780601f106114b0576101008083540402835291602001916114db565b820191906000526020600020905b8154815290600101906020018083116114be57829003601f168201915b5050505050905088565b6000865114156114f457600080fd5b60008451141561150357600080fd5b60008351141561151257600080fd5b60008251141561152157600080fd5b60008151141561153057600080fd5b60026000815480929190600101919050555060405180610100016040528060025481526020018781526020018681526020018581526020018481526020013373ffffffffffffffffffffffffffffffffffffffff168152602001838152602001828152506006600060025481526020019081526020016000206000820151816000015560208201518160010190805190602001906115cf929190612712565b5060408201518160020190805190602001906115ec929190612712565b506060820151816003019080519060200190611609929190612712565b506080820151816004019080519060200190611626929190612712565b5060a08201518160050160006101000a81548173ffffffffffffffffffffffffffffffffffffffff021916908373ffffffffffffffffffffffffffffffffffffffff16021790555060c082015181600601908051906020019061168a929190612712565b5060e08201518160070190805190602001906116a7929190612712565b509050507ff0fa217645b3418615d4ce81d2a6a30923ba2f32d731012c1e7a4ac535da78e76002548787878733888860405180898152602001806020018060200180602001806020018873ffffffffffffffffffffffffffffffffffffffff1673ffffffffffffffffffffffffffffffffffffffff168152602001806020018060200187810387528e818151815260200191508051906020019080838360005b83811015611762578082015181840152602081019050611747565b50505050905090810190601f16801561178f5780820380516001836020036101000a031916815260200191505b5087810386528d818151815260200191508051906020019080838360005b838110156117c85780820151818401526020810190506117ad565b50505050905090810190601f1680156117f55780820380516001836020036101000a031916815260200191505b5087810385528c818151815260200191508051906020019080838360005b8381101561182e578082015181840152602081019050611813565b50505050905090810190601f16801561185b5780820380516001836020036101000a031916815260200191505b5087810384528b818151815260200191508051906020019080838360005b83811015611894578082015181840152602081019050611879565b50505050905090810190601f1680156118c15780820380516001836020036101000a031916815260200191505b50878103835289818151815260200191508051906020019080838360005b838110156118fa5780820151818401526020810190506118df565b50505050905090810190601f1680156119275780820380516001836020036101000a031916815260200191505b50878103825288818151815260200191508051906020019080838360005b83811015611960578082015181840152602081019050611945565b50505050905090810190601f16801561198d5780820380516001836020036101000a031916815260200191505b509e50505050505050505050505050505060405180910390a1505050505050565b6004602052806000526040600020600091509050806000015490806001018054600181600116156101000203166002900480601f016020809104026020016040519081016040528092919081815260200182805460018160011615610100020316600290048015611a605780601f10611a3557610100808354040283529160200191611a60565b820191906000526020600020905b815481529060010190602001808311611a4357829003601f168201915b505050505090806002018054600181600116156101000203166002900480601f016020809104026020016040519081016040528092919081815260200182805460018160011615610100020316600290048015611afe5780601f10611ad357610100808354040283529160200191611afe565b820191906000526020600020905b815481529060010190602001808311611ae157829003601f168201915b505050505090806003018054600181600116156101000203166002900480601f016020809104026020016040519081016040528092919081815260200182805460018160011615610100020316600290048015611b9c5780601f10611b7157610100808354040283529160200191611b9c565b820191906000526020600020905b815481529060010190602001808311611b7f57829003601f168201915b505050505090806004018054600181600116156101000203166002900480601f016020809104026020016040519081016040528092919081815260200182805460018160011615610100020316600290048015611c3a5780601f10611c0f57610100808354040283529160200191611c3a565b820191906000526020600020905b815481529060010190602001808311611c1d57829003601f168201915b5050505050908060050160009054906101000a900473ffffffffffffffffffffffffffffffffffffffff16905086565b6005602052806000526040600020600091509050806000015490806001018054600181600116156101000203166002900480601f016020809104026020016040519081016040528092919081815260200182805460018160011615610100020316600290048015611d1c5780601f10611cf157610100808354040283529160200191611d1c565b820191906000526020600020905b815481529060010190602001808311611cff57829003601f168201915b505050505090806002018054600181600116156101000203166002900480601f016020809104026020016040519081016040528092919081815260200182805460018160011615610100020316600290048015611dba5780601f10611d8f57610100808354040283529160200191611dba565b820191906000526020600020905b815481529060010190602001808311611d9d57829003601f168201915b505050505090806003018054600181600116156101000203166002900480601f016020809104026020016040519081016040528092919081815260200182805460018160011615610100020316600290048015611e585780601f10611e2d57610100808354040283529160200191611e58565b820191906000526020600020905b815481529060010190602001808311611e3b57829003601f168201915b505050505090806004018054600181600116156101000203166002900480601f016020809104026020016040519081016040528092919081815260200182805460018160011615610100020316600290048015611ef65780601f10611ecb57610100808354040283529160200191611ef6565b820191906000526020600020905b815481529060010190602001808311611ed957829003601f168201915b5050505050908060050160009054906101000a900473ffffffffffffffffffffffffffffffffffffffff16905086565b60025481565b600360009054906101000a900473ffffffffffffffffffffffffffffffffffffffff1673ffffffffffffffffffffffffffffffffffffffff163373ffffffffffffffffffffffffffffffffffffffff1614611f8657600080fd5b600084511415611f9557600080fd5b600083511415611fa457600080fd5b600082511415611fb357600080fd5b600081511415611fc257600080fd5b6001600081548092919060010191905055506040518060c0016040528060015481526020018581526020018481526020018381526020018281526020013373ffffffffffffffffffffffffffffffffffffffff16815250600560006001548152602001908152602001600020600082015181600001556020820151816001019080519060200190612054929190612712565b506040820151816002019080519060200190612071929190612712565b50606082015181600301908051906020019061208e929190612712565b5060808201518160040190805190602001906120ab929190612712565b5060a08201518160050160006101000a81548173ffffffffffffffffffffffffffffffffffffffff021916908373ffffffffffffffffffffffffffffffffffffffff1602179055509050507f8c5d0faaeb77d9eccf748ec43df65caf6bb655a39ec2c4e07985014f0c4e8f37600154858585853360405180878152602001806020018060200180602001806020018673ffffffffffffffffffffffffffffffffffffffff1673ffffffffffffffffffffffffffffffffffffffff16815260200185810385528a818151815260200191508051906020019080838360005b838110156121a3578082015181840152602081019050612188565b50505050905090810190601f1680156121d05780820380516001836020036101000a031916815260200191505b50858103845289818151815260200191508051906020019080838360005b838110156122095780820151818401526020810190506121ee565b50505050905090810190601f1680156122365780820380516001836020036101000a031916815260200191505b50858103835288818151815260200191508051906020019080838360005b8381101561226f578082015181840152602081019050612254565b50505050905090810190601f16801561229c5780820380516001836020036101000a031916815260200191505b50858103825287818151815260200191508051906020019080838360005b838110156122d55780820151818401526020810190506122ba565b50505050905090810190601f1680156123025780820380516001836020036101000a031916815260200191505b509a505050505050505050505060405180910390a150505050565b60005481565b600360009054906101000a900473ffffffffffffffffffffffffffffffffffffffff1673ffffffffffffffffffffffffffffffffffffffff163373ffffffffffffffffffffffffffffffffffffffff161461237d57600080fd5b60008451141561238c57600080fd5b60008351141561239b57600080fd5b6000825114156123aa57600080fd5b6000815114156123b957600080fd5b60008081548092919060010191905055506040518060c0016040528060005481526020018581526020018481526020018381526020018281526020013373ffffffffffffffffffffffffffffffffffffffff168152506004600080548152602001908152602001600020600082015181600001556020820151816001019080519060200190612449929190612712565b506040820151816002019080519060200190612466929190612712565b506060820151816003019080519060200190612483929190612712565b5060808201518160040190805190602001906124a0929190612712565b5060a08201518160050160006101000a81548173ffffffffffffffffffffffffffffffffffffffff021916908373ffffffffffffffffffffffffffffffffffffffff1602179055509050507fb04cc8e999bdc869160fde48064136d011f19755d97437ac23d3abfa35aafa98600054858585853360405180878152602001806020018060200180602001806020018673ffffffffffffffffffffffffffffffffffffffff1673ffffffffffffffffffffffffffffffffffffffff16815260200185810385528a818151815260200191508051906020019080838360005b8381101561259857808201518184015260208101905061257d565b50505050905090810190601f1680156125c55780820380516001836020036101000a031916815260200191505b50858103845289818151815260200191508051906020019080838360005b838110156125fe5780820151818401526020810190506125e3565b50505050905090810190601f16801561262b5780820380516001836020036101000a031916815260200191505b50858103835288818151815260200191508051906020019080838360005b83811015612664578082015181840152602081019050612649565b50505050905090810190601f1680156126915780820380516001836020036101000a031916815260200191505b50858103825287818151815260200191508051906020019080838360005b838110156126ca5780820151818401526020810190506126af565b50505050905090810190601f1680156126f75780820380516001836020036101000a031916815260200191505b509a505050505050505050505060405180910390a150505050565b828054600181600116156101000203166002900490600052602060002090601f016020900481019282601f1061275357805160ff1916838001178555612781565b82800160010185558215612781579182015b82811115612780578251825591602001919060010190612765565b5b50905061278e9190612792565b5090565b6127b491905b808211156127b0576000816000905550600101612798565b5090565b9056fea265627a7a72315820f410b0eafc528ffaceb0f9f3c036a7b8f351374c7b997362632f752fdd0baae764736f6c63430005100032",
  "source": "pragma solidity >=0.4.22 <0.9.0;\n\ncontract Origin {\n\n    uint public productCount = 0;\n    uint public orderCount = 0;\n    uint public shipmentCount = 0;\n    address owner = 0x8F01F0376aBeB45409d48DdAa81d1d02724E72FE;\n    mapping (uint => Product) public products; \n    mapping (uint => Order) public orders; \n    mapping (uint => Shipment) public shipments; \n\n    constructor() public {\n    }\n    \n    modifier onlyOwner() {\n      require(msg.sender == owner);\n      _;\n    }\n\n    struct Product {\n        uint id;\n        string name;\n        string image;\n        string process;\n        string date;\n        address account;\n    }\n\n    event ProductAdded(\n        uint id,\n        string name,\n        string image,\n        string process,\n        string date,\n        address account\n    );\n   \n    function addProduct(string memory _name, string memory _image, string memory _process, string memory _date) public onlyOwner {\n        require(bytes(_name).length != 0);\n        require(bytes(_image).length != 0);\n        require(bytes(_process).length != 0);\n        require(bytes(_date).length != 0);\n        productCount++;\n        products[productCount] = Product(productCount, _name,_image, _process, _date, msg.sender);\n        emit ProductAdded(productCount, _name, _image, _process, _date, msg.sender);\n    }\n\n    struct Order {\n        uint id;\n        string name;\n        string quantity;\n        string unit;\n        string date;\n        address account;\n    }\n\n    event OrderAdded(\n        uint id,\n        string name,\n        string quantity,\n        string unit,\n        string date,\n        address account\n    );\n   \n    function addOrder(string memory _name, string memory _quantity, string memory _unit, string memory _date) public onlyOwner {\n        require(bytes(_name).length != 0);\n        require(bytes(_quantity).length != 0);\n        require(bytes(_unit).length != 0);\n        require(bytes(_date).length != 0);\n        orderCount++;\n        orders[orderCount] = Order(orderCount, _name, _quantity, _unit, _date, msg.sender);\n        emit OrderAdded(orderCount, _name, _quantity, _unit, _date, msg.sender);\n    }   \n\n    struct Shipment {\n        uint id;\n        string shipType;\n        string place;\n        string latlong;\n        string date;\n        address account;\n        string product;\n        string process;\n    }\n\n    event ShipmentAdded(\n        uint id,\n        string shipType,\n        string place,\n        string latlong,\n        string date,\n        address account,\n        string product,\n        string process\n    );\n   \n    function addShipment(string memory _shipType, string memory _place,  string memory _latlong, \n    string memory _date, string memory _product, string memory _process) public {\n        require(bytes(_shipType).length != 0);\n        require(bytes(_latlong).length != 0);\n        require(bytes(_date).length != 0);\n        require(bytes(_product).length != 0);\n        require(bytes(_process).length != 0);\n        shipmentCount++;\n        shipments[shipmentCount] = Shipment(shipmentCount, _shipType, _place, _latlong, _date, msg.sender, _product, _process);\n        emit ShipmentAdded(shipmentCount, _shipType, _place, _latlong, _date, msg.sender, _product, _process);\n    } \n    \n}",
  "sourcePath": "/Users/keshavgarg/Downloads/Sustainable-Supply-Chain-DApp-main/contracts/Origin.sol",
  "compiler": {
    "name": "solc",
    "version": "0.5.16+commit.9c3226ce.Emscripten.clang"
  },
  "schemaVersion": "3.4.14",
  "updatedAt": "2023-06-09T22:13:32.362Z",
  "networkType": "ethereum",
  "devdoc": {
    "methods": {}
  },
  "userdoc": {
    "methods": {}
  }
}